:100000000C942A000C94360C0C94CF0B0C94C50B5A
:100010000C9447000C9447000C9447000C94470044
:100020000C9447000C949D0C0C9447000C944700D2
:100030000C9447000C9447000C9447000C94470024
:100040000C9447000C9447000C9447000C94470014
:100050000C94470011241FBECFE5D8E0DEBFCDBF12
:1000600010E0A0E6B0E0E4EAF0E202C005900D92F4
:10007000A039B107D9F721E0A0E9B0E001C01D9295
:10008000AA3CB207E1F70E94450E0C9450100C9464
:10009000000021E030E060E070E0AC01440F551F4B
:1000A000440F551F440F551F840F951FA8E0B0E063
:1000B000FC01E20FF31FEE0FFF1FE856FF4F4081D8
:1000C0005181FD01E21BF30B02C0440F551FEA955D
:1000D000E2F7642B752B2F5F3F4F2930310541F735
:1000E000CB0108950F931F93CF93DF93AC01209121
:1000F00090003091910023703327232B09F097C093
:1001000041970CF0A7C2CB010297069708F0A5C251
:10011000FA01EE0FFF1FEE0FFF1FEE0FFF1FE40FA0
:10012000F51FE60FF71FEE0FFF1FE856FF4F808108
:100130009181009709F094C29B0121503109FA0185
:10014000EE0FFF1FEE0FFF1FEE0FFF1FE40FF51F57
:10015000E20FF31FEE0FFF1FE856FF4FA081B181A2
:10016000109709F0A5C2EB012196FA01EE0FFF1FCF
:10017000EE0FFF1FEE0FFF1FE40FF51FEC0FFD1F2B
:10018000EE0FFF1FE856FF4F80819181009709F025
:100190006AC2DA011197FD01EE0FFF1FEE0FFF1F7C
:1001A000EE0FFF1FEA0FFB1FE60FF71FEE0FFF1FFB
:1001B000E856FF4F0190F081E02DEF2B09F078C257
:1001C000CA01880F991F880F991F880F991F480F20
:1001D000591FFA01E60FF71FEE0FFF1FE856FF4FFA
:1001E00081E090E091838083FA01E20FF31FEE0F2C
:1001F000FF1FE856FF4F91838083C40FD51FCC0F9C
:10020000DD1FC856DF4F99838883FD01EE0FFF1F66
:10021000EE0FFF1FEE0FFF1FEA0FFB1FE60FF71F8A
:10022000EE0FFF1FE856FF4F9183808341C220915C
:1002300090003091910023703078332334F42150B2
:1002400031092C6F3F6F2F5F3F4F2130310509F08F
:10025000A2C0403151050CF008C2CB0101970797AD
:1002600008F006C2FA01EE0FFF1FEE0FFF1FEE0FA0
:10027000FF1FE40FF51FE60FF71FEE0FFF1FE856F5
:10028000FF4F80819181009709F0F5C1DA01119744
:10029000FD01EE0FFF1FEE0FFF1FEE0FFF1FEA0F16
:1002A000FB1FE60FF71FEE0FFF1FE856FF4FC08141
:1002B000D181209709F0FCC18B010F5F1F4FFA011C
:1002C000EE0FFF1FEE0FFF1FEE0FFF1FE40FF51FD6
:1002D000E00FF11FEE0FFF1FE856FF4F8081918165
:1002E000009709F0CBC1EA012196FE01EE0FFF1F36
:1002F000EE0FFF1FEE0FFF1FEC0FFD1FE60FF71FA6
:10030000EE0FFF1FE856FF4F0190F081E02DEF2B1D
:1003100009F0CEC1CA01880F991F880F991F880F55
:10032000991F480F591FFA01E60FF71FEE0FFF1F25
:10033000E856FF4F81E090E091838083FD01EE0F4E
:10034000FF1FEE0FFF1FEE0FFF1FEA0FFB1FE60F51
:10035000F71FEE0FFF1FE856FF4F91838083400F7A
:10036000511FFA01EE0FFF1FE856FF4F9183808364
:10037000FE01EE0FFF1FEE0FFF1FEE0FFF1FEC0F32
:10038000FD1FE60FF71FEE0FFF1FE856FF4F91838B
:100390008083C9018DC180919000909191008370FC
:1003A0009078992324F401978C6F9F6F01960297A0
:1003B00009F09BC0403151050CF062C1CB0102979E
:1003C000069708F060C1FA01EE0FFF1FEE0FFF1F46
:1003D000EE0FFF1FE40FF51FE60FF71FEE0FFF1FD5
:1003E000E856FF4F80819181009709F04FC19B0132
:1003F00021503109FA01EE0FFF1FEE0FFF1FEE0F24
:10040000FF1FE40FF51FE20FF31FEE0FFF1FE8566B
:10041000FF4FA081B181109709F04AC1EB012196ED
:10042000FA01EE0FFF1FEE0FFF1FEE0FFF1FE40F8D
:10043000F51FEC0FFD1FEE0FFF1FE856FF4F8081E9
:100440009181009709F025C1DA011196FD01EE0FA7
:10045000FF1FEE0FFF1FEE0FFF1FEA0FFB1FE60F40
:10046000F71FEE0FFF1FE856FF4F0190F081E02DC0
:10047000EF2B09F01DC1FA01EE0FFF1FEE0FFF1F5A
:10048000EE0FFF1F4E0F5F1FFA01E60FF71FEE0F73
:10049000FF1FE856FF4F01E010E011830083FA01CF
:1004A000E20FF31FEE0FFF1FE856FF4F118300838B
:1004B000FA01EC0FFD1FEE0FFF1FE856FF4F1183EF
:1004C0000083FD01EE0FFF1FEE0FFF1FEE0FFF1F5A
:1004D000EA0FFB1FE60FF71FEE0FFF1FE856FF4F57
:1004E0001183008381E090E0E3C0809190009091BF
:1004F000910083709078992324F401978C6F9F6FFB
:100500000196039709F0C7C0403151050CF0C6C0F1
:10051000CB010297079708F0C4C0FA01EE0FFF1F46
:10052000EE0FFF1FEE0FFF1FE40FF51FE60FF71F83
:10053000EE0FFF1FE856FF4F80819181009709F071
:10054000B3C09A0121503109F901EE0FFF1FEE0FE0
:10055000FF1FEE0FFF1FE20FF31FE60FF71FEE0F57
:10056000FF1FE856FF4FA081B181109709F0A0C08E
:10057000EB012197FA01EE0FFF1FEE0FFF1FEE0FA9
:10058000FF1FE40FF51FEC0FFD1FEE0FFF1FE856D6
:10059000FF4F80819181009709F089C0FA0131965F
:1005A000DF01AA0FBB1FAA0FBB1FAA0FBB1FAE0FF5
:1005B000BF1FA60FB71FAA0FBB1FA856BF4F0D9096
:1005C000BC91A02DAB2B09F073C0DA01AA0FBB1FA1
:1005D000AA0FBB1FAA0FBB1F4A0F5B1FDA01A60F92
:1005E000B71FAA0FBB1FA856BF4F01E010E011961E
:1005F0001C930E93D901AA0FBB1FAA0FBB1FAA0FF2
:10060000BB1FA20FB31FA60FB71FAA0FBB1FA85671
:10061000BF4F11961C930E93DA01AC0FBD1FAA0FAA
:10062000BB1FA856BF4F11961C930E93CF01880F86
:10063000991F880F991F880F991FE80FF91FE60F60
:10064000F71FEE0FFF1FE856FF4F1183008381E075
:1006500090E02EC080E090E02BC080E090E028C0C9
:1006600080E090E025C0CD0123C080E090E020C074
:1006700080E090E01DC080E090E01AC0CE0118C07C
:1006800080E090E015C080E090E012C080E090E053
:100690000FC0CD010DC080E090E00AC080E090E086
:1006A00007C080E090E004C080E090E001C0CD0190
:1006B000DF91CF911F910F910895CF93DF93AC01FC
:1006C000809190009091910080FD72C04131510560
:1006D0000CF002C1CB010297069708F000C1FA01A5
:1006E000EE0FFF1FEE0FFF1FEE0FFF1FE40FF51FB2
:1006F000E60FF71FEE0FFF1FE856FF4FA081B181F5
:10070000109709F0EFC09B0121503109FA01EE0F5B
:10071000FF1FEE0FFF1FEE0FFF1FE40FF51FE20F8D
:10072000F31FEE0FFF1FE856FF4F80819181009766
:1007300009F0DBC0DB011196FA01EE0FFF1FEE0F8F
:10074000FF1FEE0FFF1FE40FF51FEA0FFB1FEE0F59
:10075000FF1FE856FF4F0190F081E02DEF2B09F0CD
:10076000D3C0CA01880F991F880F991F880F991F3E
:10077000480F591FFA01E60FF71FEE0FFF1FE8564B
:10078000FF4F81E090E091838083FA01E20FF31F35
:10079000EE0FFF1FE856FF4F91838083A40FB51F14
:1007A000AA0FBB1FA856BF4F11969C938E93ACC047
:1007B000209190003091910021703078332334F4EF
:1007C000215031092E6F3F6F2F5F3F4F2130310590
:1007D00009F08DC0403151050CF08CC0CB01019760
:1007E000089708F08AC0FA01EE0FFF1FEE0FFF1FF7
:1007F000EE0FFF1FE40FF51FE60FF71FEE0FFF1FB1
:10080000E856FF4F80819181009709F079C0DA01A5
:100810001197FD01EE0FFF1FEE0FFF1FEE0FFF1FE1
:10082000EA0FFB1FE60FF71FEE0FFF1FE856FF4F03
:100830000190F081E02D309709F066C0CA01019661
:10084000EC01CC0FDD1FCC0FDD1FCC0FDD1FC80F5F
:10085000D91FC60FD71FCC0FDD1FC856DF4F099019
:10086000D881C02DCD2B09F04EC0FA01EE0FFF1F2D
:10087000EE0FFF1FEE0FFF1FE40FF51FE60FF71F30
:10088000EE0FFF1FE856FF4F41E050E051834083D9
:10089000FD01EE0FFF1FEE0FFF1FEE0FFF1FEA0F10
:1008A000FB1FE60FF71FEE0FFF1FE856FF4F5183A8
:1008B0004083FC01EE0FFF1FEE0FFF1FEE0FFF1F27
:1008C000E80FF91FE60FF71FEE0FFF1FE856FF4F67
:1008D00051834083C90118C080E090E015C080E0DA
:1008E00090E012C080E090E00FC0CD010DC080E02C
:1008F00090E00AC080E090E007C080E090E004C093
:1009000080E090E001C0CF01DF91CF910895CF93B7
:10091000DF939C0141970CF094C0CB01019707979E
:1009200008F092C0F901EE0FFF1FEE0FFF1FEE0F50
:10093000FF1FE20FF31FE60FF71FEE0FFF1FE85632
:10094000FF4F80819181009709F081C0AB014F5F1B
:100950005F4FF901EE0FFF1FEE0FFF1FEE0FFF1F9E
:10096000E20FF31FE40FF51FEE0FFF1FE856FF4FD6
:10097000C081D181209709F06EC0D9011197FD0186
:10098000EE0FFF1FEE0FFF1FEE0FFF1FEA0FFB1F03
:10099000E60FF71FEE0FFF1FE856FF4F8081918192
:1009A000009709F057C0FD01EE0FFF1FEE0FFF1F6C
:1009B000EE0FFF1FEA0FFB1FE40FF51FEE0FFF1FE7
:1009C000E856FF4F0190F081E02DEF2B09F043C076
:1009D000C901880F991F880F991F880F991F280F29
:1009E000391FF901E60FF71FEE0FFF1FE856FF4F03
:1009F00081E090E091838083240F351FF901EE0F91
:100A0000FF1FE856FF4F91838083FD01EE0FFF1F0C
:100A1000EE0FFF1FEE0FFF1FAE0FBF1FFD01E60F12
:100A2000F71FEE0FFF1FE856FF4F91838083FD01F4
:100A3000E40FF51FEE0FFF1FE856FF4F91838083F1
:100A40000AC080E090E007C080E090E004C080E051
:100A500090E001C0CE01DF91CF9108950F931F93D5
:100A6000CF93DF93AC0120919000309191002370DF
:100A70003327232B09F0A1C041970CF0A7C2CB016B
:100A80000197079708F0A5C2FA01EE0FFF1FEE0FBE
:100A9000FF1FEE0FFF1FE40FF51FE60FF71FEE0F0E
:100AA000FF1FE856FF4F80819181009709F094C2A3
:100AB0009B012F5F3F4FFA01EE0FFF1FEE0FFF1F4D
:100AC000EE0FFF1FE40FF51FE20FF31FEE0FFF1FE6
:100AD000E856FF4FC081D181209709F0A5C2DA0105
:100AE0001197FD01EE0FFF1FEE0FFF1FEE0FFF1F0F
:100AF000EA0FFB1FE60FF71FEE0FFF1FE856FF4F31
:100B000080819181009709F06AC2EA012297FE0173
:100B1000EE0FFF1FEE0FFF1FEE0FFF1FEC0FFD1F6D
:100B2000E60FF71FEE0FFF1FE856FF4F0190F08111
:100B3000E02DEF2B09F078C2FA01EE0FFF1FEE0F48
:100B4000FF1FEE0FFF1F4E0F5F1F8A01060F171FBB
:100B5000000F111F08561F4F81E090E0F8019183AC
:100B60008083FA01E20FF31FEE0FFF1FE856FF4FDD
:100B700091838083FD01EE0FFF1FEE0FFF1FEE0F2D
:100B8000FF1FEA0FFB1FE60FF71FEE0FFF1FE856D0
:100B9000FF4F91838083FE01EE0FFF1FEE0FFF1FBB
:100BA000EE0FFF1FEC0FFD1FE60FF71FEE0FFF1FED
:100BB000E856FF4F9183808337C220919000309197
:100BC000910023703078332334F4215031092C6F95
:100BD0003F6F2F5F3F4F2130310509F09AC0403100
:100BE00051050CF0FEC1CB010197069708F0FCC13E
:100BF000FA01EE0FFF1FEE0FFF1FEE0FFF1FE40FB6
:100C0000F51FE60FF71FEE0FFF1FE856FF4F80811D
:100C10009181009709F0EBC1DB011196FA01EE0F0B
:100C2000FF1FEE0FFF1FEE0FFF1FE40FF51FEA0F70
:100C3000FB1FEE0FFF1FE856FF4FC081D1812097A9
:100C400009F0F2C18B010E5F1F4FFA01EE0FFF1F7B
:100C5000EE0FFF1FEE0FFF1FE40FF51FE00FF11F58
:100C6000EE0FFF1FE856FF4F80819181009709F03A
:100C7000C1C1EA012196FE01EE0FFF1FEE0FFF1F1B
:100C8000EE0FFF1FEC0FFD1FE60FF71FEE0FFF1F0C
:100C9000E856FF4F0190F081E02DEF2B09F0C4C121
:100CA000FA01EE0FFF1FEE0FFF1FEE0FFF1F4E0F9B
:100CB0005F1FFA01E60FF71FEE0FFF1FE856FF4F09
:100CC00081E090E091838083FA01EA0FFB1FEE0F31
:100CD000FF1FE856FF4F91838083FA01E00FF11F59
:100CE000EE0FFF1FE856FF4F91838083FE01EE0F4A
:100CF000FF1FEE0FFF1FEE0FFF1FEC0FFD1FE60F94
:100D0000F71FEE0FFF1FE856FF4F91838083C90145
:100D10008BC180919000909191008370907899237D
:100D200024F401978C6F9F6F0196029709F0A4C07D
:100D30004F3051050CF060C1CB010297079708F0C6
:100D40005EC1FA01EE0FFF1FEE0FFF1FEE0FFF1F38
:100D5000E40FF51FE60FF71FEE0FFF1FE856FF4FDA
:100D600080819181009709F04DC19B01215031098B
:100D7000FA01EE0FFF1FEE0FFF1FEE0FFF1FE40F34
:100D8000F51FE20FF31FEE0FFF1FE856FF4FC08164
:100D9000D181209709F048C1DA011196FD01EE0FCB
:100DA000FF1FEE0FFF1FEE0FFF1FEA0FFB1FE60FE7
:100DB000F71FEE0FFF1FE856FF4F808191810097CC
:100DC00009F023C1EA012296FE01EE0FFF1FEE0F8C
:100DD000FF1FEE0FFF1FEC0FFD1FE60FF71FEE0FBB
:100DE000FF1FE856FF4F0190F081E02DEF2B09F037
:100DF0001BC1FA01EE0FFF1FEE0FFF1FEE0FFF1FCB
:100E00004E0F5F1FCA01860F971F880F991F8856C4
:100E10009F4F01E010E0FC0111830083FA01E20F13
:100E2000F31FEE0FFF1FE856FF4F11830083FD01F4
:100E3000EE0FFF1FEE0FFF1FEE0FFF1FEA0FFB1F4E
:100E4000E60FF71FEE0FFF1FE856FF4F11830083D9
:100E5000FE01EE0FFF1FEE0FFF1FEE0FFF1FEC0F47
:100E6000FD1FE60FF71FEE0FFF1FE856FF4F118320
:100E7000008381E090E0D8C0809190009091910033
:100E800083709078992324F401978C6F9F6F01965B
:100E9000039709F0BCC0413151050CF0BBC0CB0138
:100EA0000397069708F0B9C0FA01EE0FFF1FEE0F87
:100EB000FF1FEE0FFF1FE40FF51FE60FF71FEE0FEA
:100EC000FF1FE856FF4F80819181009709F0A8C06D
:100ED0009B0121503109FA01EE0FFF1FEE0FFF1F9A
:100EE000EE0FFF1FE40FF51FE20FF31FEE0FFF1FC2
:100EF000E856FF4FC081D181209709F095C0DB01F2
:100F00001297FA01EE0FFF1FEE0FFF1FEE0FFF1FEC
:100F1000E40FF51FEA0FFB1FEE0FFF1FE856FF4F10
:100F200080819181009709F07EC0FA013197EF012D
:100F3000CC0FDD1FCC0FDD1FCC0FDD1FCE0FDF1F51
:100F4000C60FD71FCC0FDD1FC856DF4F0990D881C1
:100F5000C02DCD2B09F068C0CA01880F991F880FDA
:100F6000991F880F991F480F591FEA01C60FD71FF5
:100F7000CC0FDD1FC856DF4F01E010E01983088356
:100F8000EA01C20FD31FCC0FDD1FC856DF4F1983F4
:100F90000883A40FB51FAA0FBB1FA856BF4F1196F9
:100FA0001C930E93CF01880F991F880F991F880FEC
:100FB000991FE80FF91FE60FF71FEE0FFF1FE85606
:100FC000FF4F1183008381E090E02EC080E090E02D
:100FD0002BC080E090E028C080E090E025C0CE01EA
:100FE00023C080E090E020C080E090E01DC080E061
:100FF00090E01AC0CE0118C080E090E015C080E0FB
:1010000090E012C080E090E00FC0CE010DC080E003
:1010100090E00AC080E090E007C080E090E004C06B
:1010200080E090E001C0CE01DF91CF911F910F9140
:1010300008954130510519F40E947200089542301C
:10104000510519F40E945D0308954330510519F4C8
:101050000E94870408954430510519F40E942E051A
:10106000089508954130510509F044C12091900040
:101070003091910023703327232BE9F5FC01EE0F0B
:10108000FF1FEE0FFF1FEE0FFF1FE80FF91FDF011D
:10109000A60FB71FAA0FBB1FA856BF4F11961C92D1
:1010A0001E92DB011197AE0FBF1FAA0FBB1FA856E0
:1010B000BF4F11961C921E929B012F5F3F4FE20F74
:1010C000F31FEE0FFF1FE856FF4F118210820197AA
:1010D000FC01EE0FFF1FEE0FFF1FEE0FFF1F8E0F25
:1010E0009F1FFC01E60FF71FEE0FFF1FE856FF4F93
:1010F0001182108208952091900030919100237008
:101100003078332334F4215031092C6F3F6F2F5F37
:101110003F4F2130310509F047C0FC01EE0FFF1FA2
:10112000EE0FFF1FEE0FFF1FAF01480F591FDA012F
:10113000A60FB71FAA0FBB1FA856BF4F11961C9230
:101140001E929C0121503109F901EE0FFF1FEE0F95
:10115000FF1FEE0FFF1FE20FF31FE60FF71FEE0F4B
:10116000FF1FE856FF4F118210829B012F5F3F4FF8
:10117000FA01E20FF31FEE0FFF1FE856FF4F118237
:1011800010820196FC01EE0FFF1FEE0FFF1FEE0F06
:10119000FF1FE80FF91FE60FF71FEE0FFF1FE856BE
:1011A000FF4F11821082089520919000309191009C
:1011B00023703078332334F4215031092C6F3F6F82
:1011C0002F5F3F4F22303105E1F5FC01EE0FFF1F8D
:1011D000EE0FFF1FEE0FFF1FE80FF91FDF01A60F35
:1011E000B71FAA0FBB1FA856BF4F11961C921E9285
:1011F000DB011197AE0FBF1FAA0FBB1FA856BF4F31
:1012000011961C921E929B012F5F3F4FE20FF31F1E
:10121000EE0FFF1FE856FF4F118210820196FC016E
:10122000EE0FFF1FEE0FFF1FEE0FFF1FE80FF91F5E
:10123000E60FF71FEE0FFF1FE856FF4F11821082D7
:1012400008952091900030919100237030783323DD
:1012500034F4215031092C6F3F6F2F5F3F4F233003
:10126000310509F044C2FC01EE0FFF1FEE0FFF1F16
:10127000EE0FFF1FAF01480F591FDA01A60FB71F6E
:10128000AA0FBB1FA856BF4F11961C921E929C011D
:1012900021503109F901EE0FFF1FEE0FFF1FEE0F76
:1012A000FF1FE20FF31FE60FF71FEE0FFF1FE856B9
:1012B000FF4F118210829B0121503109FA01E20F88
:1012C000F31FEE0FFF1FE856FF4F118210820196A9
:1012D000FC01EE0FFF1FEE0FFF1FEE0FFF1FE80FC9
:1012E000F91FE60FF71FEE0FFF1FE856FF4F1182A1
:1012F000108208954230510509F078C02091900085
:101300003091910020FD28C0FC01EE0FFF1FEE0F71
:10131000FF1FEE0FFF1F8E0F9F1FFC01E60FF71F31
:10132000EE0FFF1FE856FF4F11821082DB0111976D
:10133000A80FB91FAA0FBB1FA856BF4F11961C922A
:101340001E92FB013196E80FF91FEE0FFF1FE856C2
:10135000FF4F1182108208952091900030919100EA
:1013600021703078332334F4215031092E6F3F6FD0
:101370002F5F3F4F2130310509F0B9C1FC01EE0F5D
:10138000FF1FEE0FFF1FEE0FFF1FE80FF91FE60F05
:10139000F71FEE0FFF1FE856FF4F118210829C01CE
:1013A00021503109F901EE0FFF1FEE0FFF1FEE0F65
:1013B000FF1FE20FF31FE60FF71FEE0FFF1FE856A8
:1013C000FF4F118210820196FC01EE0FFF1FEE0FFE
:1013D000FF1FEE0FFF1FE80FF91FE60FF71FEE0FBD
:1013E000FF1FE856FF4F11821082089543305105C8
:1013F000D9F59C01220F331F220F331F220F331FF9
:10140000280F391FF901E60FF71FEE0FFF1FE856EF
:10141000FF4F11821082AB014F5F5F4FF901E40F64
:10142000F51FEE0FFF1FE856FF4F11821082019744
:10143000FC01EE0FFF1FEE0FFF1FEE0FFF1F8E0FC1
:101440009F1FFC01E60FF71FEE0FFF1FE856FF4F2F
:1014500011821082FC01E40FF51FEE0FFF1FE8560A
:10146000FF4F1182108208954430510509F03FC1A9
:10147000209190003091910023703327232B09F0A5
:1014800045C0FC01EE0FFF1FEE0FFF1FEE0FFF1F09
:10149000E80FF91FDF01A60FB71FAA0FBB1FA85641
:1014A000BF4F11961C921E929B012F5F3F4FE20F80
:1014B000F31FEE0FFF1FE856FF4F118210829C01B1
:1014C00021503109F901EE0FFF1FEE0FFF1FEE0F44
:1014D000FF1FE20FF31FE60FF71FEE0FFF1FE85687
:1014E000FF4F118210820297FC01EE0FFF1FEE0FDB
:1014F000FF1FEE0FFF1FE80FF91FE60FF71FEE0F9C
:10150000FF1FE856FF4F118210820895209190002E
:101510003091910023703078332334F42150310915
:101520002C6F3F6F2F5F3F4F21303105E1F5FC01FC
:10153000EE0FFF1FEE0FFF1FEE0FFF1FE80FF91F4B
:10154000DF01A60FB71FAA0FBB1FA856BF4F1196EA
:101550001C921E92DB011196AE0FBF1FAA0FBB1F7C
:10156000A856BF4F11961C921E929B012E5F3F4FB3
:10157000E20FF31FEE0FFF1FE856FF4F118210829C
:101580000196FC01EE0FFF1FEE0FFF1FEE0FFF1F76
:10159000E80FF91FE60FF71FEE0FFF1FE856FF4F8A
:1015A0001182108208952091900030919100237053
:1015B0003078332334F4215031092C6F3F6F2F5F83
:1015C0003F4F2230310509F045C0FC01EE0FFF1FEF
:1015D000EE0FFF1FEE0FFF1FE80FF91FDF01A60F31
:1015E000B71FAA0FBB1FA856BF4F11961C921E9281
:1015F0009B0121503109E20FF31FEE0FFF1FE85648
:10160000FF4F118210829C012F5F3F4FF901EE0FB7
:10161000FF1FEE0FFF1FEE0FFF1FE20FF31FE60F7E
:10162000F71FEE0FFF1FE856FF4F11821082029640
:10163000FC01EE0FFF1FEE0FFF1FEE0FFF1FE80F65
:10164000F91FE60FF71FEE0FFF1FE856FF4F11823D
:10165000108208952091900030919100237030788D
:10166000332334F4215031092C6F3F6F2F5F3F4FEC
:1016700023303105E1F5FC01EE0FFF1FEE0FFF1FD8
:10168000EE0FFF1FE80FF91FDF01A60FB71FAA0F0C
:10169000BB1FA856BF4F11961C921E92DB011197DB
:1016A000AE0FBF1FAA0FBB1FA856BF4F11961C92AB
:1016B0001E929B0122503109E20FF31FEE0FFF1F14
:1016C000E856FF4F118210820197FC01EE0FFF1FB9
:1016D000EE0FFF1FEE0FFF1F8E0F9F1FFC01E60F87
:1016E000F71FEE0FFF1FE856FF4F1182108208957B
:1016F000EF92FF920F931F93CF93DF93CDB7DEB797
:10170000A0970FB6F894DEBF0FBECDBFF894CE0100
:1017100001967C0100E010E00F5F1F4FC8010E949E
:101720004900F701819391937F0100311105A1F7E1
:1017300000EA10E017C04C91129684E190E0FB01A2
:10174000EE0FFF1FE059FF4F208131812BBB48BBBB
:101750000197D1F76F5F7F4F6031710561F70150DD
:10176000110929F0DE01119660E070E0E4CF789471
:10177000A0960FB6F894DEBF0FBECDBFDF91CF911C
:101780001F910F91FF90EF9008951F920F920FB647
:101790000F9211240F900FBE0F901F9018951F925B
:1017A0000F920FB60F9211242F933F934F935F9395
:1017B0006F937F938F939F93AF93BF93EF93FF9319
:1017C000409196005091970060916C0070916D006F
:1017D00080916E0090916F000E94320880916C00A1
:1017E00090916D00909369008093680080916C00E7
:1017F00090916D00019790936D0080936C004091E3
:1018000096005091970060916C0070916D008091EE
:101810006E0090916F000E941908892BB1F480919D
:1018200068009091690090936D0080936C004091E6
:1018300096005091970060916C0070916D008091BE
:101840006E0090916F000E941908FF91EF91BF9177
:10185000AF919F918F917F916F915F914F913F9148
:101860002F910F900FBE0F901F9018951F920F92FF
:101870000FB60F9211242F933F934F935F936F9363
:101880007F938F939F93AF93BF93EF93FF93409179
:1018900096005091970060916C0070916D0080915E
:1018A0006E0090916F000E94320880916C009091C0
:1018B0006D00909369008093680080916C00909116
:1018C0006D00019690936D0080936C00409196009E
:1018D0005091970060916C0070916D0080916E0046
:1018E00090916F000E941908892BB1F480916800D3
:1018F0009091690090936D0080936C0040919600E8
:101900005091970060916C0070916D0080916E0015
:1019100090916F000E941908FF91EF91BF91AF91D4
:101920009F918F917F916F915F914F913F912F91F7
:101930000F900FBE0F901F9018951F920F920FB629
:101940000F9211248F939F93809194009091950012
:10195000019690939500809394009F918F910F90A2
:101960000FBE0F901F901895EF92FF920F931F9349
:10197000CF93DF93E12CF12CC0E1D0E001E010E047
:10198000CE010E9449008F3F910509F046C0BE017B
:101990006150710916161706D4F045C0FA01E80F18
:1019A000F91FEE0FFF1FE856FF4FA081B181F9012B
:1019B000E80FF91FEE0FFF1FE856FF4FB183A0831A
:1019C00001968930910551F76150710961F181E00B
:1019D00090E09B012F5F3F4FAB01440F551F440F19
:1019E000551F440F551F460F571FF901EE0FFF1FDC
:1019F000EE0FFF1FEE0FFF1F2E0F3F1FCFCFFC017B
:101A0000EE0FFF1FE655FF4F1182108201968930BD
:101A10009105A9F72196E02EF12E21971C161D069F
:101A20000CF4AECF03C081E090E0E9CF8E2D9F2D66
:101A3000DF91CF911F910F91FF90EF900895909AB1
:101A400083E08A95F1F7000090981DBC1CBC81E4EE
:101A50008EBD80E288BF84E088BF08B605FEFDCF5A
:101A60001DBC1CBC81E08EBD80E288BF84E088BFC5
:101A7000109295001092940008B605FEFDCF66B551
:101A800077B580E090E00E94050F23E333E349E659
:101A900052E40E945B0E0E94CD0E603271052CF460
:101AA000709367006093660006C08FE190E09093AA
:101AB0006700809366004091960050919700609176
:101AC0006C0070916D0080916E0090916F000E948B
:101AD000320880916C0090916D0090936900809322
:101AE00068008091640090916500209166003091BB
:101AF0006700AC014F5F5F4F4217530754F480916A
:101B00006C0090916D00019690936D0080936C0035
:101B10000DC00197281739074CF480916C00909103
:101B20006D00019790936D0080936C00409196003A
:101B30005091970060916C0070916D0080916E00E3
:101B400090916F000E941908892BB1F48091680070
:101B50009091690090936D0080936C004091960085
:101B60005091970060916C0070916D0080916E00B3
:101B700090916F000E941908809166009091670013
:101B80009093650080936400089580916E00909119
:101B90006F00019779F40E94DD0F8370907899238C
:101BA00024F401978C6F9F6F019601969093970094
:101BB00080939600409196005091970060916C0040
:101BC00070916D0080916E0090916F000E941908D5
:101BD000892BA1F4409196005091970060916C0080
:101BE00070916D0080916A0090916B000E941908BD
:101BF00081E090E0909393008093920080916E003A
:101C000090916F0090936B0080936A000E94780B14
:101C10008091920090919300892B11F40E941F0DE6
:101C20008091920090919300892BC1F4409196008D
:101C30005091970060916C0070916D0080916E00E2
:101C400090916F000E94320880916E0090916F0019
:101C5000019690936F0080936E0010C081E090E039
:101C600090936F0080936E0084E090E090936D00FD
:101C700080936C0010929300109292000E94B40C1A
:101C8000019711F40E94780B089582E391E0E8E94E
:101C9000F0E0DF019C011D9221503040E1F78FEF11
:101CA00087BB8ABB81E081BB789484E089BF1FBC7D
:101CB0000E94C50DFDCF0E946F0E0C94570F0E941D
:101CC000500F58F00E94490F40F029F45F3F29F06F
:101CD0000C94400F51110C948B0F0C94460F0E94E2
:101CE000680F68F39923B1F3552391F3951B550BB6
:101CF000BB27AA2762177307840738F09F5F5F4FDF
:101D0000220F331F441FAA1FA9F335D00E2E3AF01D
:101D1000E0E832D091505040E695001CCAF72BD035
:101D2000FE2F29D0660F771F881FBB1F2617370786
:101D30004807AB07B0E809F0BB0B802DBF01FF27B8
:101D400093585F4F3AF09E3F510578F00C94400F46
:101D50000C948B0F5F3FE4F3983ED4F38695779510
:101D60006795B795F7959F5FC9F7880F911D969571
:101D7000879597F90895E1E0660F771F881FBB1FCD
:101D8000621773078407BA0720F0621B730B840B7A
:101D9000BA0BEE1F88F7E09508950E94D40E689460
:101DA000B1110C948B0F08950E94700F88F09F570B
:101DB00098F0B92F9927B751B0F0E1F0660F771F6F
:101DC000881F991F1AF0BA95C9F714C0B13091F065
:101DD0000E948A0FB1E008950C948A0F672F782F24
:101DE0008827B85F39F0B93FCCF38695779567952A
:101DF000B395D9F73EF490958095709561957F4F96
:101E00008F4F9F4F0895E89409C097FB3EF490953B
:101E10008095709561957F4F8F4F9F4F9923A9F0C3
:101E2000F92F96E9BB279395F69587957795679552
:101E3000B795F111F8CFFAF4BB0F11F460FF1BC096
:101E40006F5F7F4F8F4F9F4F16C0882311F096E929
:101E500011C0772321F09EE8872F762F05C06623D7
:101E600071F096E8862F70E060E02AF09A95660F90
:101E7000771F881FDAF7880F9695879597F9089549
:101E800097F99F6780E870E060E008959FEF80EC2D
:101E9000089500240A9416161706180609060895D0
:101EA00000240A9412161306140605060895092E36
:101EB0000394000C11F4882352F0BB0F40F4BF2BA5
:101EC00011F460FF04C06F5F7F4F8F4F9F4F0895E5
:101ED00057FD9058440F551F59F05F3F71F04795DB
:101EE000880F97FB991F61F09F3F79F087950895C0
:101EF000121613061406551FF2CF4695F1DF08C0DF
:101F0000161617061806991FF1CF869571056105FB
:101F100008940895E894BB2766277727CB0197F9A3
:101F200008958F929F92AF92BF92CF92DF92EF92DD
:101F3000FF92CF93DF93EC01688179818A819B8145
:101F4000611571058105910521F464E279ED8BE558
:101F500097E02DE133EF41E050E00E94ED0F4901A1
:101F60005A019B01AC01A7EAB1E40E940C106B017D
:101F70007C01ACEEB4EFA50194010E941A10DC01C3
:101F8000CB018C0D9D1DAE1DBF1DB7FF03C001977A
:101F9000A109B04888839983AA83BB839F77DF9187
:101FA000CF91FF90EF90DF90CF90BF90AF909F9038
:101FB0008F9008950E94910F089580E690E00E940E
:101FC000910F0895A0E0B0E08093600090936100CD
:101FD000A0936200B09363000895052E97FB1EF452
:101FE00000940E94041057FD07D00E941F1007FCA8
:101FF00003D04EF40C9404105095409530952195E3
:102000003F4F4F4F5F4F0895909580957095619524
:102010007F4F8F4F9F4F08950E944110A59F900DB5
:10202000B49F900DA49F800D911D11240895B7FFBA
:102030000C940C100E940C10821B930B0895A1E2CB
:102040001A2EAA1BBB1BFD010DC0AA1FBB1FEE1F32
:10205000FF1FA217B307E407F50720F0A21BB30B7D
:10206000E40BF50B661F771F881F991F1A9469F7F9
:1020700060957095809590959B01AC01BD01CF0155
:102080000895A29FB001B39FC001A39F700D811D51
:102090001124911DB29F700D811D1124911D089571
:0420A000F894FFCFE2
:1020A4000100000008000800040001000400010011
:1020B400080009000A000B000C000D000E000F00C0
:1020C40080009000A000B000C000D000E000F0004C
:00000001FF
